:020000040800F2
:1000000000000120C5020008CB020008CF02000852
:1000100041030008450300088D03000800000000AC
:10002000000000000000000000000000D5030008F0
:10003000D903000800000000DD0300081D170008B8
:10004000F1030008F1030008F1030008F1030008C0
:10005000F1030008F10300083121000855210008D0
:10006000792100089D210008C1210008F103000842
:10007000F1030008F1030008F1030008F103000890
:10008000F1030008F103000831230008000000001C
:10009000000000000000000000000000E521000852
:1000A00021160008F1030008F1030008911400086C
:1000B000E11400083115000881150008F10300085B
:1000C000F1030008F1030008F1030008F103000840
:1000D000F1030008ED08000809090008000000000D
:1000E00009220008F1030008F103000800000000E5
:1000F000000000000000000000000000F103000804
:1001000000000000F1030008D1150008F103000809
:1001100000000000000000000000000000000000DF
:10012000F1030008F1030008F1030008F1030008DF
:10013000F1030008000000000000000000000000C3
:10014000000000000000000000000000F1030008B3
:10015000F1030008F1030008F10300082509000875
:10016000F1030008F1030008000000000000000097
:10017000000000000000000000000000000000007F
:1001800000000000F1030008000000000000000073
:10019000F103000800B583B000F0BAF9384B394AD2
:1001A0001360394A1360394900E02146384B9942BF
:1001B0000BD20A684B6801F10C0488689842F4D9A4
:1001C0001168196004330432F8E72E4B1A68314B7A
:1001D0009A4200D0FEE72C4B1A682F4B9A42F9D175
:1001E000274B2E4A13602E4A13602E4B05E0002049
:1001F000106004329342FAD80B462B4A934204D241
:10020000194651F8082B5B68F4E7244B1B6813B9B7
:10021000234B1B6803B1FEE702F082FE694601A88A
:1002200000F022F9214C224BE41AA4100025AC4224
:1002300014DC204C204BE41AA4100025AC4213DC43
:100240000099019802F06EFE05461C4C1C4BE41A06
:10025000A410002C0EDC284600F0E2F8144B53F8F2
:10026000253098470135E2E7134B53F8253098477E
:100270000135E3E7013C124B53F824309847E8E797
:10028000BABADECA0000002030010020F4030008E2
:100290000C04000878563412325476983801002045
:1002A000D00300200C0400081C0400081C040008F3
:1002B0001C0400081C0400081C0400081C0400089E
:1002C0001C04000808B5FFF765FF00BEFEE71EF03E
:1002D000040F0CBFEFF30880EFF309807146414A29
:1002E00010472DE9F04182B004468846124B5E6B00
:1002F0009F6B9D6A1B6B13F0020F03D00E4BDB6AE2
:10030000002B0CDB0D4800F0B7F8CDF800803B4621
:1003100032462946204600F007F900BEFEE74BF6BC
:10032000AB6100F07BF90028ECD0034B4FF00042AA
:10033000DA6202B0BDE8F08100ED00E0B4470008E9
:1003400000BEFEE71EF0040F0CBFEFF30880EFF3D2
:1003500009807146244A10472DE9F04182B00446D5
:100360008846084B5E6B9F6B9D6A074800F084F8D7
:10037000CDF800803B4632462946204600F0D4F8AE
:1003800000BEFEE700ED00E0C44700081EF0040FC9
:100390000CBFEFF30880EFF309807146134A104752
:1003A0002DE9F04182B004468846084B5E6B9F6B96
:1003B0009D6A074800F060F8CDF800803B46324661
:1003C0002946204600F0B0F800BEFEE700ED00E050
:1003D000D047000800BEFEE700BEFEE700BEFEE715
:1003E00070470000E302000859030008A103000859
:0403F00000BEFEE766
:1003F400244800080000002034010020244800089C
:10040400000000100000001038010020D403002078
:080414000000001000000010C0
:10042000FEE7000008B503460C4A12685AB10B4AB1
:100430001068033323F003030344094A934206D8A8
:10044000064A136008BD054A06491160EFE703F04C
:10045000A9FC0C2303604FF0FF30F3E73C010020C0
:1004600000FC0020D403002001230360014B0B603B
:10047000704700BF040000200FB400B583B004AB88
:1004800053F8042B01938021064803F0BDFC00289B
:1004900003DD0146034800F037F803B05DF804EBD4
:1004A00004B07047440100202DE9F04385B00446B4
:1004B0000F4643560BB10E461EE004252846214642
:1004C000ABBE0446384605B0BDE8F08314F9011B05
:1004D00004AA1A4402F8101C0133AB42F6D304AA52
:1004E0001344002203F8102C4FF00408E94640465C
:1004F0004946ABBE8046761B002EE3D03546102E13
:1005000028BF10250023E8E708B5FFF7CDFF08BD99
:1005100008B500F093F8024A024B9A6008BD00BF8C
:100520000000000800ED00E0F8B504460D4617464F
:100530001E462748FFF7A0FF21682648FFF79CFFCB
:1005400061682548FFF798FFA1682448FFF794FFEA
:10055000E1682348FFF790FF21692248FFF78CFFED
:1005600061692148FFF788FFA1692048FFF784FFF0
:10057000E1691F48FFF780FF1E48FFF77DFF29460E
:100580001D48FFF779FF1D4CE16A1D48FFF774FF16
:10059000216B1C48FFF770FFE16B1B48FFF76CFFF6
:1005A00015F0800F0AD115F4004F0CD11748FFF752
:1005B00063FF06991648FFF75FFFF8BD39461548F7
:1005C000FFF75AFFEFE731461348FFF755FFEDE716
:1005D00098460008A8460008B8460008C846000823
:1005E000D8460008E8460008F84600080847000812
:1005F00018470008284700083447000800ED00E0CD
:10060000444700085447000864470008944700081E
:100610009C470008744700088447000883691A88CB
:100620008A4201D0002070470268033A012A03D8A9
:100630000233836101207047002070470C4B1A6819
:1006400042F001021A60002199601A6822F0847257
:1006500022F480321A60074A5A601A6822F4802213
:100660001A60D960044B4FF000629A60704700BF77
:10067000003802401030002400ED00E038B50024BE
:1006800005E0013B0F4A42F824300134E4B2132C58
:1006900017D80D4B53F83420002AF6D003EBC403CF
:1006A000DB79012BF1D1074B53F82430002BE8D133
:1006B0009047054B03EBC4039A88024B43F8242070
:1006C000E3E738BDF4020020C401002008B5034967
:1006D00046F2A81001F03AF808BD00BF7D060008F8
:1006E000132A14D810B40B4C54F8324014B1022021
:1006F00010BC7047074C44F8320004EBC200818004
:10070000054941F822300123C3710020F0E70120A0
:10071000704700BFC4010020F4020020054B53F8CD
:1007200030302BB1034B03EBC0030020D87170476E
:1007300001207047C4010020064B53F8303033B11C
:10074000044B03EBC0000123C3710020704701205C
:10075000704700BFC4010020818000207047000066
:1007600038B504460D460023C37103F1804303F5F9
:10077000883399423FD0304B9D4244D02F4B9D420D
:1007800049D002222178A07801F070FB0222617822
:10079000E07801F06BFB07222178A07801F04EFC95
:1007A00007226178E07801F049FC6379002B3AD0A8
:1007B000012B3CD0EB6823F400436279D20392B260
:1007C0001343EB6023F480532279120302F4805226
:1007D000134323F4C063EB602A6922F48052A179A9
:1007E000090301F480510A432A6143F40053EB608A
:1007F0000123E37138BD0421032000F0E9FF252027
:1008000001F00EF8B7E71121022000F0E1FF2620E9
:1008100001F006F8B2E70521022000F0D9FF4720D9
:1008200000F0FEFFADE740F62C23AB60C2E741F2DB
:100830005443AB60BEE700BF0044004000140140D9
:10084000C36823F00C0343F00803C360CB79012B8A
:1008500000D0704702230B72FBE7C36843F00C0320
:10086000C360CB79012B00D0704705234B72022364
:100870000B72F9E7137A022B04D0042B13D101E099
:10088000032313720B6813F0800FF9D0486001E066
:10089000032313720B6813F0400FF9D043F04003A9
:1008A0000B60042313727047034B1B6803B170473E
:1008B000014B1860FBE700BF64020020034B1B687C
:1008C00003B17047014B1860FBE700BF6C020020CA
:1008D0004B7A052B00D0704706234B72C36843F058
:1008E0002003C360F7E700797047000008B5044BA8
:1008F00000221A60034B1B6803B1984708BD00BF74
:10090000001001406402002008B5044B00221A6068
:10091000034B1B6803B1984708BD00BF004400406B
:100920006802002008B5044B00221A60034B1B68C4
:1009300003B1984708BD00BF001401406C020020BD
:1009400008B50378013B082B3CD8DFE803F0050E1F
:100950001720293B3B3B32000021032000F038FFE9
:100960001B2000F05DFF012008BD0021022000F0E7
:100970002FFF1C2000F054FF0120F5E70121022089
:1009800000F026FF1D2000F04BFF0120ECE70221C4
:10099000084600F01DFF1E2000F042FF0120E3E7A3
:1009A0000321022000F014FF322000F039FF012063
:1009B000DAE70321084600F00BFF182000F030FFB3
:1009C0000120D1E74FF0FF30CEE700000378013B74
:1009D000082B24D8DFE803F0050A10151A23232377
:1009E0001F004368013B0E4A936270474368013B16
:1009F0004FF08042936270474368013B094A93621B
:100A000070474368013B084A936270474368013B63
:100A1000064A936270474368013B054A93627047F8
:100A2000000001400004004000080040000C0040AD
:100A3000004001400378013B082B24D8DFE803F095
:100A4000050A10151A2323231F008368013B0E4A51
:100A5000D36270478368013B4FF08042D362704796
:100A60008368013B094AD36270478368013B084AA7
:100A7000D36270478368013B064AD362704783683C
:100A8000013B054AD362704700000140000400406A
:100A900000080040000C0040004001400378013B8A
:100AA000082B3CD8DFE803F0050E18212A3B3B3B1E
:100AB00033001B4A136823F0010301F001011943BD
:100AC000116070474FF08042136823F0010301F07A
:100AD0000101194311607047124A136823F00103A2
:100AE00001F001011943116070470F4A136823F0A8
:100AF000010301F001011943116070470B4A1368AB
:100B000023F0010301F00101194311607047084A05
:100B1000136823F0010301F00101194311607047CC
:100B2000000001400004004000080040000C0040AC
:100B3000004001400378013B082B24D8DFE803F094
:100B4000050A0F14192323231E0002690F4B1A6193
:100B50000120704702690D4B1A600120704702693D
:100B60000A4B5A60012070470269084B9A600120C5
:100B700070470269054BDA60012070470269034B38
:100B80005A61012070474FF0FF307047700200201B
:100B90000378013B082B7BD8DFE803F005193145CA
:100BA000597A7A7A6D00437B013B032B73D8DFE8D7
:100BB00003F00205080B3D4B586B70473B4B986B9D
:100BC00070473A4BD86B7047384B186C7047437B73
:100BD000013B032B61D8DFE803F002060A0E4FF059
:100BE0008043586B70474FF08043986B70474FF0CD
:100BF0008043D86B70474FF08043186C7047437B3D
:100C0000013B032B4BD8DFE803F00205080B284B10
:100C1000586B7047264B986B7047254BD86B7047C5
:100C2000234B186C7047437B013B032B39D8DFE81B
:100C300003F00205080B1F4B586B70471D4B986B58
:100C400070471C4BD86B70471A4B186C7047437B2E
:100C5000013B032B27D8DFE803F00205080B164BF6
:100C6000586B7047144B986B7047134BD86B704799
:100C7000114B186C7047437B012B03D0022B04D01F
:100C8000012070470D4B586B70470C4B986B7047A9
:100C90004FF0FF307047012070470120704701205E
:100CA0007047012070470120704700BF00000140DD
:100CB0000004004000080040000C004000400140DB
:100CC0000378013B082B00F24F82DFE813F00900A4
:100CD0007000DB004201AD014D024D024D021402D5
:100CE000437B013B032B00F24282DFE803F0021A50
:100CF00031499C4B9A6942F001029A611A6A22F0CA
:100D00000E02017B490001F00E010A431A621A6AC1
:100D100042F001021A62DA6842F00202DA6001204F
:100D20007047904B9A6942F480729A611A6A22F075
:100D3000E002017B4901C9B20A431A621A6A42F011
:100D400010021A62DA6842F00402DA600120704789
:100D5000844BDA6942F00102DA611A6A22F46062B5
:100D6000017B490201F460610A431A621A6A42F483
:100D700080721A62DA6842F00802DA600120704775
:100D8000784BDA6942F48072DA611A6A22F46042BE
:100D9000017B490389B20A431A621A6A42F48052FB
:100DA0001A62DA6842F01002DA6001207047437B71
:100DB000013B032B00F2DD81DFE803F0021B334C23
:100DC0004FF080439A6942F001029A611A6A22F058
:100DD0000E02017B490001F00E010A431A621A6AF1
:100DE00042F001021A62DA6842F00202DA6001207F
:100DF00070474FF080439A6942F480729A611A6A90
:100E000022F0E002017B4901C9B20A431A621A6A60
:100E100042F010021A62DA6842F00402DA6001203D
:100E200070474FF08043DA6942F00102DA611A6AD2
:100E300022F46062017B490201F460610A431A6294
:100E40001A6A42F480721A62DA6842F00802DA60C2
:100E5000012070474FF08043DA6942F48072DA6112
:100E60001A6A22F46042017B490389B20A431A627A
:100E70001A6A42F480521A62DA6842F01002DA60AA
:100E800001207047437B013B032B00F27481DFE8B4
:100E900003F0021A3149344B9A6942F001029A6117
:100EA0001A6A22F00E02017B490001F00E010A438A
:100EB0001A621A6A42F001021A62DA6842F0020209
:100EC000DA6001207047284B9A6942F480729A6177
:100ED0001A6A22F0E002017B4901C9B20A431A6290
:100EE0001A6A42F010021A62DA6842F00402DA600A
:100EF000012070471C4BDA6942F00102DA611A6A7C
:100F000022F46062017B490201F460610A431A62C3
:100F10001A6A42F480721A62DA6842F00802DA60F1
:100F200001207047104BDA6942F48072DA611A6A64
:100F300022F46042017B490389B20A431A621A6AA9
:100F400042F480521A62DA6842F01002DA6001203C
:100F50007047437B013B032B00F20F81DFE803F076
:100F6000061E354D0000014000040040854B9A6983
:100F700042F001029A611A6A22F00E02017B4900D6
:100F800001F00E010A431A621A6A42F001021A6263
:100F9000DA6842F00202DA6001207047794B9A6900
:100FA00042F480729A611A6A22F0E002017B4901E0
:100FB000C9B20A431A621A6A42F010021A62DA6867
:100FC00042F00402DA60012070476E4BDA6942F0A9
:100FD0000102DA611A6A22F46062017B490201F4BB
:100FE00060610A431A621A6A42F480721A62DA680D
:100FF00042F00802DA6001207047624BDA6942F47D
:101000008072DA611A6A22F46042017B490389B274
:101010000A431A621A6A42F480521A62DA6842F08B
:101020001002DA6001207047437B013B032B00F282
:10103000A680DFE803F0021A3149534B9A6942F067
:1010400001029A611A6A22F00E02017B490001F046
:101050000E010A431A621A6A42F001021A62DA6841
:1010600042F00202DA6001207047474B9A6942F46D
:1010700080729A611A6A22F0E002017B4901C9B2CA
:101080000A431A621A6A42F010021A62DA6842F0DF
:101090000402DA60012070473B4BDA6942F001023A
:1010A000DA611A6A22F46062017B490201F460612C
:1010B0000A431A621A6A42F480721A62DA6842F0CB
:1010C0000802DA60012070472F4BDA6942F480721F
:1010D000DA611A6A22F46042017B490389B20A4349
:1010E0001A621A6A42F480521A62DA6842F01002F6
:1010F000DA6001207047437B012B03D0022B19D00B
:1011000001207047214B9A6942F001029A611A6AE4
:1011100022F00E02017B490001F00E010A431A621F
:101120001A6A42F001021A62DA6842F00202DA60D8
:101130000120704710B4154B9A6942F480729A618D
:10114000134C226A22F0E002017B4901C9B20A4332
:1011500022621A6A42F010021A62DA6842F004024D
:10116000DA60012010BC70474FF0FF30704701205B
:10117000704701207047012070470120704701200F
:10118000704700BF00080040000C004000400140D4
:10119000000001400378013B082B25D8DFE803F06D
:1011A000050A10151A2424241F00114B00225A622C
:1011B000012070474FF0804300225A62012070479F
:1011C0000C4B00225A62012070470B4B00225A62DE
:1011D00001207047094B00225A6201207047084BDA
:1011E00000225A62012070474FF0FF30704700BF65
:1011F000000001400004004000080040000C0040D6
:10120000004001400378013B082B00F22981DFE810
:1012100013F009003C007300A600D9002701270144
:1012200027010B01437B013B032B00F21C81DFE80C
:1012300003F0020D1722914A136A23F00E034900AE
:1012400001F00E010B431362012070478B4A136AB1
:1012500023F0E0034901C9B20B4313620120704738
:10126000864A136A23F46063490201F460610B4308
:10127000136201207047814A136A23F460434903D3
:1012800089B20B43136201207047437B013B032B60
:1012900000F2EB80DFE803F0020E19254FF08042E8
:1012A000136A23F00E03490001F00E010B43136291
:1012B000012070474FF08042136A23F0E003490198
:1012C000C9B20B431362012070474FF08042136A8A
:1012D00023F46063490201F460610B43136201204F
:1012E00070474FF08042136A23F46043490389B288
:1012F0000B43136201207047437B013B032B00F239
:10130000B680DFE803F0020D17225D4A136A23F06E
:101310000E03490001F00E010B43136201207047D8
:10132000574A136A23F0E0034901C9B20B43136221
:1013300001207047524A136A23F46063490201F4A2
:1013400060610B431362012070474D4A136A23F416
:101350006043490389B20B43136201207047437B0A
:10136000013B032B00F28580DFE803F0020D17221A
:10137000444A136A23F00E03490001F00E010B43A7
:101380001362012070473F4A136A23F0E0034901CA
:10139000C9B20B431362012070473A4A136A23F41F
:1013A0006063490201F460610B43136201207047DE
:1013B000344A136A23F46043490389B20B4313622E
:1013C00001207047437B013B032B54D8DFE803F037
:1013D000020D17222C4A136A23F00E03490001F074
:1013E0000E010B43136201207047274A136A23F052
:1013F000E0034901C9B20B43136201207047224A3E
:10140000136A23F46063490201F460610B431362C1
:10141000012070471C4A136A23F46043490389B2D0
:101420000B43136201207047437B012B03D0022B37
:101430000CD001207047154A136A23F00E034900AF
:1014400001F00E010B431362012070470F4A136A2B
:1014500023F0E0034901C9B219431162012070472A
:101460004FF0FF3070470120704701207047012086
:101470007047012070470120704700BF0000014005
:101480000004004000080040000C00400040014003
:1014900008B5114B19691A6922F001021A611A691B
:1014A00022F002021A611A6922F004021A611A6912
:1014B00022F008021A611A6922F010021A6111F072
:1014C000010F04D01A461B6923F001031361034B7B
:1014D0001B6903B1984708BD00000140700200205D
:1014E00008B54FF0804319691A6922F001021A61A8
:1014F0001A6922F002021A611A6922F004021A61C2
:101500001A6922F008021A611A6922F010021A619F
:1015100011F0010F04D01A461B6923F00103136177
:10152000024B1B6803B1984708BD00BF7002002042
:1015300008B5114B19691A6922F001021A611A697A
:1015400022F002021A611A6922F004021A611A6971
:1015500022F008021A611A6922F010021A6111F0D1
:10156000010F04D01A461B6923F001031361034BDA
:101570005B6803B1984708BD00040040700200207A
:1015800008B5114B19691A6922F001021A611A692A
:1015900022F002021A611A6922F004021A611A6921
:1015A00022F008021A611A6922F010021A6111F081
:1015B000010F04D01A461B6923F001031361034B8A
:1015C0009B6803B1984708BD0008004070020020E6
:1015D00008B5114B19691A6922F001021A611A69DA
:1015E00022F002021A611A6922F004021A611A69D1
:1015F00022F008021A611A6922F010021A6111F031
:10160000010F04D01A461B6923F001031361034B39
:10161000DB6803B1984708BD000C00407002002051
:1016200008B50D4B19691A6922F001021A611A698D
:1016300022F002021A611A6922F004021A6111F002
:10164000010F04D01A461B6923F001031361034BF9
:101650005B6903B1984708BD00400140700200205B
:1016600038B505460C460121002000F0B1F81D4BAD
:101670009C4227D01221032000F0AAF8022209215F
:10168000012000F0F3FB03220921012000F0D6FC29
:10169000236843F080032360134A936943F00803EF
:1016A0009361A2F58062518D2B8843EA01439362D6
:1016B000636943F001036361E28D6B8843EA02438F
:1016C000E36238BD1121032000F082F802220821D4
:1016D000012000F0CBFB03220821012000F0AEFC2A
:1016E000D6E700BF00440140004801408B6923F069
:1016F000700343F0600323F003038B610B6A23F054
:101700000A0343F001030B62CA8E838843EA024353
:101710004B630B6843F001030B60704708B5084B3F
:101720001B6843B1074A12782AB19847064A1368E2
:1017300023F002031360024B1B68984708BD00BFEB
:10174000880200208C02002010E000E00C4B0022F8
:101750009A60B0F1807F11D3094B00225A60084B88
:101760001A6842F001021A60064A11601A6842F0D3
:1017700002021A60044B00221A7070475860EEE7AC
:1017800010E000E0880200208C0200200F4B1A6855
:1017900042F400221A601A6822F480221A609A68C1
:1017A00022F0030242F001029A609A6822F0F002ED
:1017B0009A609A6822F460429A609A6822F4E05231
:1017C0009A601A6842F480321A607047003802400A
:1017D000032822D8DFE800F0020A121A0F48036B30
:1017E000012202FA01F11943016370470B48436B70
:1017F000012202FA01F11943416370470748036C63
:10180000012202FA01F11943016470470348436C55
:10181000012202FA01F11943416470470038024085
:1018200010B40346002812DB5B110A4C54F8232045
:10183000414200F01F0001F01F0158BF4842012142
:1018400001FA00F0104344F8230010BC704700F187
:101850001F03E9E700E100E008B50378022B3ED062
:10186000032B74D0012B02D04FF0FF3008BD15219F
:101870000220FFF7ADFF1F20FFF7D2FF2020FFF768
:10188000CFFF4F4B1A6822F001021A605A6822F00B
:101890003F0242F014025A60DA6942F40042DA610F
:1018A000DA6942F48042DA61DA6922F47F6222F076
:1018B0000F0242F00202DA611A6A22F03F0242F09D
:1018C00007021A621A6822F080021A601A6822F06F
:1018D00040021A601A6842F001021A60C4E7162139
:1018E0000220FFF775FF2120FFF79AFF2220FFF764
:1018F00097FF344B1A6822F001021A605A6822F0EE
:101900003F0242F014025A60DA6942F40042DA619E
:10191000DA6942F48042DA61DA6922F47F6222F005
:101920000F0242F00202DA611A6A22F03F0242F02C
:1019300007021A621A6822F080021A601A6822F0FE
:1019400040021A601A6842F001021A608CE71721FF
:101950000220FFF73DFF4820FFF762FF4920FFF715
:101960005FFF194B1A6822F001021A605A6822F0D0
:101970003F0242F014025A60DA6942F40042DA612E
:10198000DA6942F48042DA61DA6922F47F6222F095
:101990000F0242F00202DA611A6A22F03F0242F0BC
:1019A00007021A621A6822F080021A601A6822F08E
:1019B00040021A601A6842F001021A6054E700BF40
:1019C0000054004000580040005C004008B5037817
:1019D000022B33D0032B5ED0012B02D04FF0FF300F
:1019E00008BD01210020FFF7F3FE0222062101209D
:1019F00000F03CFA02220721012000F037FA04220D
:101A00000621012000F01AFB04220721012000F02A
:101A100015FB01220621104600F060FA0122072181
:101A2000104600F05BFA03220621012000F090FA34
:101A300003220721012000F08BFACFE701210020CB
:101A4000FFF7C6FE02220A21012000F00FFA02224F
:101A50000B21012000F00AFA04220A21012000F0E3
:101A6000EDFA04220B21012000F0E8FA01220A21FC
:101A7000104600F033FA01220B21104600F02EFA36
:101A800003220A21012000F063FA03220B21012026
:101A900000F05EFAA2E701210020FFF799FE002185
:101AA0000846FFF795FE02220821012000F0DEF92A
:101AB00002220421012000F0D9F90422082101208A
:101AC00000F0BCFA04221146012000F0B7FA01220E
:101AD0000821104600F002FA01220421104600F00D
:101AE000FDF903220821012000F032FA032204212B
:101AF000012000F02DFA71E70378022B71D0032B3F
:101B000000F0B580012B01D00020704710B40023F5
:101B10007A48806910F0020F04D00133B3F5FA5F00
:101B2000F6D10023754C206840F480702060734823
:101B3000406910F0010F04D10133B3F5FA5FF6D11B
:101B400000236E484469490001616C48406910F007
:101B5000020F04D10133B3F5FA5FF6D100236748D1
:101B600084690261654A526912F0040F04D101339D
:101B7000B3F5FA5FF6D100236048026842F4807240
:101B800002605E4A526912F0010F04D10133B3F5CD
:101B9000FA5FF6D1002341F00101584A1161574A1A
:101BA000526912F0020F04D10133B3F5FA5FF6D196
:101BB0000023524A9169116821F4806111604F4AF3
:101BC000526912F0400F03D10133B3F5FA5FF6D139
:101BD0004A4B1869C0B21A6842F400721A6010BC0D
:101BE0007047474B9B6913F0020FFAD144480368D2
:101BF00043F480730360424B5B6913F0010FFAD02A
:101C00003F4B5869490019613D4B5B6913F0020F66
:101C1000FAD03B4B98691A61394B5B6913F0040F9A
:101C2000FAD0374A136843F480731360344B5B690E
:101C300013F0010FFAD041F00101314B1961304B23
:101C40005B6913F0020FFAD02D4B9A691A6822F4DF
:101C500080621A602A4B5B6913F0400FFAD0284B60
:101C60001869C0B21A6842F400721A607047254BB6
:101C70009B6913F0020FFAD12248036843F4807382
:101C80000360204B5B6913F0010FFAD01D4B5869BC
:101C9000490019611B4B5B6913F0020FFAD0194B15
:101CA00098691A61174B5B6913F0040FFAD0154A53
:101CB000136843F480731360124B5B6913F0010FD8
:101CC000FAD041F001010F4B19610E4B5B6913F023
:101CD000020FFAD00B4B9A691A6822F480621A60DC
:101CE000084B5B6913F0400FFAD0064B1869C0B27D
:101CF0001A6842F400721A60704700BF0054004036
:101D000000580040005C004030B4007802284CD0FD
:101D1000032877D0012802D0002030BC7047002073
:101D20004F4CA46914F0020F04D00130B0F5FA5FF3
:101D3000F6D100204A4D2C6844F480742C60484C45
:101D4000646914F0010F04D10130B0F5FA5FF6D1E7
:101D50000020434C6569490021614149496911F0FE
:101D6000020F04D10130B0F5FA5FF6D100203C49F2
:101D70008C690A613A4A526912F0800F04D101302D
:101D8000B0F5FA5FF6D10020354A1361344B5B6938
:101D900013F0800F03D10130B0F5FA5FF6D1304A6D
:101DA000136843F400731360B6E72E48806910F09F
:101DB000020FFAD12B4C206840F480702060294833
:101DC000406910F0010FFAD02648446949000161CA
:101DD0002449496911F0020FFAD0224988690A6141
:101DE000204A526912F0800FFAD01E4A13611D4B2F
:101DF0005B6913F0800FFAD01A4A136843F400733A
:101E0000136089E71848806910F0020FFAD1164C68
:101E1000206840F4807020601348406910F0010F82
:101E2000FAD011484469490001610F49496911F02C
:101E3000020FFAD00C4988690A610B4A526912F004
:101E4000800FFAD0084A1361074B5B6913F0800FCB
:101E5000FAD0054A136843F4007313605CE700BFCF
:101E60000054004000580040005C004010B449009D
:101E7000C9B2012811D018B102281BD010BC70477C
:101E8000134C23680320884023EA000302F0030276
:101E900002FA01F119432160F0E70E4C2368032098
:101EA000884023EA000302F0030202FA01F1194319
:101EB0002160E3E7084C23680320884023EA0003FD
:101EC00002F0030202FA01F119432160D6E700BFD4
:101ED00000000240000402400008024010B4012843
:101EE00016D018B1022820D010BC7047A1F10D0304
:101EF000DBB2012BF8D9134C63680120884023EA38
:101F0000000302F0010202FA01F119436160EBE7FC
:101F10000D4C63680120884023EA000302F00102AF
:101F200002FA01F119436160DEE7084C63680120A1
:101F3000884023EA000302F0010202FA01F119438A
:101F40006160D1E700000240000402400008024046
:101F500010B44900C9B2012816D018B1022820D007
:101F600010BC7047A1F10D03DBB2012BF8D9134C63
:101F7000A3680320884023EA000302F0030202FA68
:101F800001F11943A160EBE70D4CA36803208840E1
:101F900023EA000302F0030202FA01F11943A160EF
:101FA000DEE7084CA3680320884023EA000302F020
:101FB000030202FA01F11943A160D1E700000240D7
:101FC000000402400008024010B4012816D018B1E5
:101FD000022820D010BC7047A1F10D03DBB2012B09
:101FE000F8D9134C63690120884023EA000302F00A
:101FF000010202FA01F119436161EBE70D4C6369DB
:102000000120884023EA000302F0010202FA01F1F4
:1020100019436161DEE7084C63690120884023EAC7
:10202000000302F0010202FA01F119436161D1E7F4
:1020300000000240000402400008024010B40729DA
:1020400034D88900C9B2012816D018B1022820D08E
:1020500010BC7047A1F10D03DBB2012BF8D9314C54
:10206000206A0F238B4020EA030002F00F0202FADD
:1020700001F101432162EBE72B4C206A0F238B40D7
:1020800020EA030002F00F0202FA01F1014321628B
:10209000DEE7264C206A0F238B4020EA030002F083
:1020A0000F0202FA01F101432162D1E7A1F1080315
:1020B000DBB2072BCCD801F13803DBB29B00DBB2DB
:1020C000012821D070B10228C2D1184C616A0F20BA
:1020D000984021EA000102F00F0202FA03F30B43D9
:1020E0006362B5E7A3F10D01C9B20129B0D90D4C66
:1020F000616A0F20984021EA000102F00F0202FA03
:1021000003F30B436362A3E7074C606A0F21994016
:1021100020EA010002F00F0202FA03F303436362B4
:1021200096E700BF000002400004024000080240A1
:1021300008B5064B1B683BB1044B1B689847044A23
:10214000536943F00103536108BD00BF90020020B2
:10215000003C014008B5064B5B683BB1044B5B6833
:102160009847044A536943F00203536108BD00BF16
:1021700090020020003C014008B5064B9B683BB133
:10218000044B9B689847044A536943F00403536126
:1021900008BD00BF90020020003C014008B5064B7E
:1021A000DB683BB1044BDB689847044A536943F052
:1021B0000803536108BD00BF90020020003C0140AD
:1021C00008B5064B1B693BB1044B1B699847044A91
:1021D000536943F01003536108BD00BF9002002013
:1021E000003C014008B5064B5B693BB1044B5B69A1
:1021F0009847044A536943F47873536108BD00BF9C
:1022000090020020003C014008B5064B9B693BB1A1
:10221000044B9B699847044A536943F4F84353615C
:1022200008BD00BF90020020003C014008B5FFF748
:10223000ADFA00210846FFF7CBFA01210020FFF795
:10224000C7FA08210320FFF7C3FA1220FFF7E8FAC4
:102250000D4B5A6842F020025A605A6822F04072D0
:102260005A609A6822F040529A609A6822F400629A
:102270009A60D3F82C2122F44032C3F82C219A68BA
:1022800042F001029A6008BD002001400A2819D8D6
:1022900008B5072804D9082808D009280CD008BD9B
:1022A000032201460020FFF7E1FDF8E703220021A9
:1022B0000120FFF7DBFDF2E7032201210846FFF7CB
:1022C000D5FDECE7704700000B4A536B23F01F036A
:1022D00000F01F0003435363936843F0804393600F
:1022E000054B1B6813F0020FFAD0034B1A6822F05B
:1022F00002021A60D86C704700200140034B1B6833
:1023000003B17047014B1860FBE700BFAC0200202F
:10231000064A536B23F01F0300F01F00034353636F
:10232000936843F080439360704700BF00200140F2
:1023300008B5054B1B682BB19847044A136823F076
:102340000203136008BD00BFAC0200200020014062
:10235000014BD86C80B270470020014008B5FFF7F0
:10236000F7FF014B186008BD4803002070B5064612
:102370000139CCB2064D00232B55FFF757FF054816
:10238000FFF7BCFF3078FFF781FF0120285570BDB3
:10239000B00200205D23000808B5044B1B681878C4
:1023A000FFF792FF024B186008BD00BF44030020F6
:1023B0004803002070B50139CCB2184B1B5753B3FA
:1023C0000546164B02221A550078FFF7A1FF144B61
:1023D000186841F28833984203D8A0F2BD23302B0D
:1023E0000ED80E4E042333550E4B1B682A781A70F4
:1023F000FFF7D2FF3357022B06D04FF0FF3070BDEE
:10240000064B03221A55FAE7064B1B682A781A7006
:102410004FF0FF30F3E74FF0FF30F0E7B00200205D
:10242000480300204403002010B5104B1B7813B163
:10243000012B0CD010BD0E4C2046FEF7ABFE012147
:102440002046FEF7DFFE094B01221A70F2E7084C26
:102450002046FEF79DFB074B586000212046FEF703
:10246000D1FE024B00221A70E4E700BFDC0200201C
:1024700030000020B402002010B5104B1B7813B1BF
:10248000012B0CD010BD0E4C2046FEF783FE01211F
:102490002046FEF7B7FE094B01221A70F2E7084CFE
:1024A0002046FEF775FB074B986000212046FEF79B
:1024B000A9FE024B00221A70E4E700BFDD020020F3
:1024C00044000020B402002010B5104B1B7813B15B
:1024D000012B0CD010BD0E4C2046FEF75BFE0121F7
:1024E0002046FEF78FFE094B01221A70F2E7084CD6
:1024F0002046FEF74DFB074BD86000212046FEF733
:1025000081FE024B00221A70E4E700BFDE020020C9
:1025100058000020B402002010B5104B1B7813B1F6
:10252000012B0CD010BD0E4C2046FEF733FE0121CE
:102530002046FEF767FE094B01221A70F2E7084CAD
:102540002046FEF725FB074B586100212046FEF789
:1025500059FE024B00221A70E4E700BFDF020020A0
:102560006C000020B402002010B5104B1B7813B192
:10257000012B0CD010BD0E4C2046FEF70BFE0121A6
:102580002046FEF73FFE094B01221A70F2E7084C85
:102590002046FEF7FDFA074B586200212046FEF761
:1025A00031FE024B00221A70E4E700BFE002002077
:1025B00080000020B402002038B504464378013B77
:1025C000082B00F2C580DFE803F051052BC377C369
:1025D000C3C39D00604D2846FEF7B2F92846FEF7BA
:1025E000F5F92846FEF726FA2846FEF7A3FA002159
:1025F0002846FEF753FA2846FEF762FB022261796D
:102600002079FFF733FC012261792079FFF716FD6D
:102610000122E178A078FFF729FC0120A07138BDE4
:102620004E4D2846FEF78CF92846FEF7CFF928468E
:10263000FEF700FA2846FEF77DFA00212846FEF74D
:102640002DFA2846FEF73CFB022261792079FFF73C
:102650000DFC022261792079FFF7F0FC0122E1787C
:10266000A078FFF703FC0120A071D8E73C4D284675
:10267000FEF766F92846FEF7A9F92846FEF7DAF9CB
:102680002846FEF757FA00212846FEF707FA2846A3
:10269000FEF716FB022261792079FFF7E7FB0122A2
:1026A00061792079FFF7CAFC0122E178A078FFF771
:1026B000DDFB0120A071B2E72A4D2846FEF740F964
:1026C0002846FEF783F92846FEF7B4F92846FEF7B8
:1026D00031FA00212846FEF7E1F92846FEF7F0FA24
:1026E000022261792079FFF7C1FB0222617920790A
:1026F000FFF7A4FC0122E178A078FFF7B7FB0120E7
:10270000A0718CE7184D2846FEF71AF92846FEF707
:102710005DF92846FEF78EF92846FEF70BFA0021F0
:102720002846FEF7BBF92846FEF7CAFA022261796D
:102730002079FFF79BFB032261792079FFF77EFC6C
:102740000122E178A078FFF791FB0120A07166E7F4
:102750000020A07163E700BF440000205800002063
:10276000300000206C0000208000002008B590F9A7
:102770000830052B0ED14278084B53F8220001F0A7
:1027800049F9074901F052FA064901F09BF901F0B5
:10279000E9FA08BD042303721846FAE7B4020020E0
:1027A0000024F44900D0044790F9073090F906203E
:1027B000012A03D0002383711846704710B50446E0
:1027C0004278013A082A2AD8DFE802F014050D29D8
:1027D0001B292929220001211248FEF75FF9032352
:1027E000E371184610BD01210F48FEF757F9032386
:1027F000E371F6E701210D48FEF750F90323E37179
:10280000EFE701210A48FEF749F90323E371E8E7FE
:1028100001210848FEF742F90323E371E1E70222B0
:10282000C271DEE744000020580000203000002084
:102830006C0000208000002000EB800000EB800096
:10284000054AA2FB00329208002301E000BF0133D9
:102850009342FBD3704700BFCDCCCCCC90F907306E
:10286000032B03D00223C3711846704710B50446EA
:102870000F20FFF7E1FF0122E178A078FFF7A4FB2A
:102880000F20FFF7D9FF0022E178A078FFF79CFB2B
:1028900005232372184610BD38B505460C4675222F
:1028A0006821FFF729F9682804D0002384F85830FC
:1028B000002038BD00236B2268212846FFF724FA48
:1028C0000723192268212846FFF71EFA00231C223D
:1028D00068212846FFF718FA00231B2268212846A2
:1028E000FFF712FA012384F85830E1E700000000F6
:1028F00091F85830012B01D058B270472DE9F047BC
:102900000D460446022381F859303B226821FFF727
:10291000F3F882463C2268212046FFF7EDF8804616
:102920003D2268212046FFF7E7F881463E226821D4
:102930002046FFF7E1F806463F2268212046FFF7D0
:10294000DBF80746402268212046FFF7D5F80FFA4A
:1029500088F343EA0A231BB22B8036B246EA0926E3
:1029600036B26E8000B240EA07273FB2AF80184609
:1029700000F096FC0022484B00F0FCFCC5E9020187
:10298000304600F08DFC0022434B00F0F3FCC5E91B
:102990000401384600F084FC3BA3D3E9002300F097
:1029A00013FEC5E90601432268212046FFF7A4F87B
:1029B0008246442268212046FFF79EF88046452241
:1029C00068212046FFF798F8814646226821204674
:1029D000FFF792F80646472268212046FFF78CF859
:1029E0000746482268212046FFF786F80FFA88F349
:1029F00043EA0A231BB22B8436B246EA092636B2D2
:102A00006E8400B240EA07273FB2AF84184600F058
:102A100047FC1FA3D3E9002300F0D6FDC5E90A0156
:102A2000304600F03DFC1AA3D3E9002300F0CCFDB2
:102A3000C5E90C01384600F033FC15A3D3E90023A7
:102A400000F0C2FDC5E90E01412268212046FFF7D2
:102A500053F80646422268212046FFF74DF8360219
:102A600036B200B2304300F0D9FF0C4901F0DEF875
:102A70000B4900F01FFF2864032085F85900BDE8CA
:102A8000F08700BFAFF30080000000000029CC40B9
:102A900000000000006060400000103F0000AA43FA
:102AA000B81E124210B501210020FEF791FE194C0C
:102AB00019492046FEF7D4FD18492046FEF7D0FDFF
:102AC000012200211046FFF7D1F9012211461046DC
:102AD000FFF7CCF9012202211046FFF7C7F90122C6
:102AE00003211046FFF7C2F9002211460120FFF72B
:102AF000F5F9002201210846FFF7F0F90022022132
:102B00000120FFF7EBF9002203210120FFF7E6F98E
:102B100010BD00BFC4000020004401400048014037
:102B200000B585B0154B93E803000290ADF80C108A
:102B3000083393E803000090ADF80410104968468C
:102B4000FEF7D4FD0F4902A8FEF7D0FD0022114682
:102B50000120FFF739FA012211461046FFF734FA37
:102B6000002202210120FFF72FFA01220321104643
:102B7000FFF72AFA05B05DF804FB00BFE047000844
:102B8000004401400048014008B5002211460120E0
:102B9000FFF71AFA002201210846FFF715FA002272
:102BA00002210120FFF710FA002203210120FFF784
:102BB0000BFA08BD08B50348FDF795FE024B1870E7
:102BC00008BD00BF00100140E202002008B5034824
:102BD000FDF789FE024B187008BD00BF00140140CC
:102BE000BB030020F8B5FEF7D1FD00210846FEF733
:102BF000EFFD02210020FEF7EBFD01210020FEF792
:102C0000E7FDFFF74FFF2F4F3846FFF7D5FC2E4E5D
:102C10003046FFF7D1FC2D4D2846FFF7CDFC2C4C5C
:102C20002046FFF7C9FC3846FFF7BEFD3046FFF7E8
:102C3000BBFD2846FFF7B8FD2046FFF7B5FD254C44
:102C40002046FEF709FE2046FEF7C0FE2249204638
:102C5000FFF722FE01212148FFF788FB204C214D80
:102C600021462846FDF77CFD29462046FDF7F5FD67
:102C70001D48FDF719FE04F580641C4D21462846C9
:102C8000FDF76EFD29462046FDF7DAFD1848FDF7F1
:102C900015FE29462046FDF71BFE01220D210220CC
:102CA000FFF7E4F801220E210220FFF7DFF80122EE
:102CB0000F211046FFF7DAF801220E211046FFF728
:102CC000D5F8F8BDA0000020AC000020B80000201E
:102CD0009400002024000020500300202C0000203D
:102CE000001001400C000020B52B00081800002047
:102CF000CD2B000808B50648FFF7B0FD0548FFF7E3
:102D0000ADFD0548FFF7AAFD0448FFF7A7FD08BD84
:102D1000A0000020AC000020B8000020940000209B
:102D200010B50948FFF722FD084CA0600848FFF7DE
:102D30001DFD60600748FFF719FD20600648FFF79A
:102D400015FDE06010BD00BFB8000020BC030020EE
:102D5000AC000020A00000209400002008B50E4B1D
:102D60001B68013B122B0DD90B4B5B68013B122BEF
:102D70000BD9094B9B68013B122B09D94620FFF761
:102D8000CFFE01E0FFF700FF08BDFFF7FDFEFBE708
:102D9000FFF7FAFEF8E700BFBC03002008B5054BBB
:102DA0001A7882F001021A700E210220FFF70CF946
:102DB00008BD00BFE302002008B5054B1A7882F079
:102DC00001021A700F210120FFF7FEF808BD00BFB5
:102DD000E402002008B50B4BD9684B1E1C2B08D908
:102DE00000220E210220FFF7EFF80A20FDF796FCE3
:102DF00008BD89B20448FDF7AFFC0A20FDF79CFC32
:102E0000F6E700BFBC0300201402002008B5024909
:102E10000248FFF76DFD08BD50030020240000208C
:102E200038B51F4BD3E9024519A3D3E90023204647
:102E3000294600F02FFD98B917A3D3E900232046B7
:102E4000294600F009FDB8B90F20FDF767FC002204
:102E50000F210120FFF7B8F8124B00221A7038BD7D
:102E60000F20FDF769FC0F4B02221A700E4A0F4922
:102E70006520FDF7FFFCF2E70F20FDF75DFC094B35
:102E800001221A70084A09496620FDF7F3FCE6E7BB
:102E90009A9999999999C93F9A9999999999C9BF74
:102EA00050030020E10200200C000020001001402F
:102EB00008B501210248FFF77DFA024B186008BDF2
:102EC0002C000020B403002008B50B4B1B68632BBB
:102ED00008DD1120FDF722FC00220E210120FFF762
:102EE00073F808BD054A06497B20FDF7C3FC112095
:102EF000FDF722FCF5E700BFB40300200C00002022
:102F00000010014008B5054B1A7882F001021A70D2
:102F10000E210120FFF758F808BD00BFE502002090
:102F20007047000008B52948FFF786FCFFF75AFEF6
:102F30000A23052219462648FDF7D2FB3723022231
:102F400008212448FDF7CCFB322300220F21224820
:102F5000FDF7C6FB28230A2219212048FDF7C0FBF4
:102F60000A20FDF7DBFB1423102235211C48FDF756
:102F7000B7FB28230F221E211A48FDF7B1FB0F20B3
:102F8000FDF7CCFB14230B220C211748FDF7A8FBFF
:102F90000923032214211548FDF7A2FB14230E2256
:102FA00032211348FDF79CFB1423112205211148FF
:102FB000FDF796FB1120FDF7B1FB1B2312220A211E
:102FC0000D48FDF78DFBFDF781FBFEE790D0030078
:102FD000212D0008F52C00085D2D00089D2D00080E
:102FE000212E0008B92D0008D52D0008B12E0008AB
:102FF0000D2E0008052F0008C92E000881F00041A1
:1030000002E000BF83F0004330B54FEA41044FEACD
:10301000430594EA050F08BF90EA020F1FBF54EA68
:10302000000C55EA020C7FEA645C7FEA655C00F004
:10303000E2804FEA5454D4EB5555B8BF6D420CDDD5
:103040002C4480EA020281EA030382EA000083EA58
:10305000010180EA020281EA0303362D88BF30BDF8
:1030600011F0004F4FEA01314FF4801C4CEA11314E
:1030700002D0404261EB410113F0004F4FEA0333AD
:103080004CEA133302D0524263EB430394EA050F38
:1030900000F0A780A4F10104D5F1200E0DDB02FAA7
:1030A0000EFC22FA05F2801841F1000103FA0EF23B
:1030B000801843FA05F359410EE0A5F120050EF101
:1030C000200E012A03FA0EFC28BF4CF0020C43FA32
:1030D00005F3C01851EBE37101F0004507D54FF03F
:1030E000000EDCF1000C7EEB00006EEB0101B1F58F
:1030F000801F1BD3B1F5001F0CD349085FEA3000D5
:103100004FEA3C0C04F101044FEA445212F5800FDF
:1031100080F09A80BCF1004F08BF5FEA500C50F17C
:10312000000041EB045141EA050130BD5FEA4C0C5F
:10313000404141EB010111F4801FA4F10104E9D1E8
:1031400091F0000F04BF01460020B1FA81F308BFDF
:103150002033A3F10B03B3F120020CDA0C3208DDAB
:1031600002F1140CC2F10C0201FA0CF021FA02F186
:103170000CE002F11402D8BFC2F1200C01FA02F1F6
:1031800020FA0CFCDCBF41EA0C019040E41AA2BF1B
:1031900001EB0451294330BD6FEA04041F3C1CDAE3
:1031A0000C340EDC04F11404C4F1200220FA04F003
:1031B00001FA02F340EA030021FA04F345EA0301AD
:1031C00030BDC4F10C04C4F1200220FA02F001FA6F
:1031D00004F340EA0300294630BD21FA04F02946F1
:1031E00030BD94F0000F83F4801306BF81F480118A
:1031F0000134013D4EE77FEA645C18BF7FEA655CFD
:1032000029D094EA050F08BF90EA020F05D054EACE
:10321000000C04BF1946104630BD91EA030F1EBFD3
:103220000021002030BD5FEA545C05D140004941D7
:1032300028BF41F0004130BD14F580043CBF01F5CA
:10324000801130BD01F0004545F0FE4141F47001B0
:103250004FF0000030BD7FEA645C1ABF194610468B
:103260007FEA655C1CBF0B46024650EA013406BF8C
:1032700052EA033591EA030F41F4002130BD00BF4B
:1032800090F0000F04BF0021704730B54FF4806408
:1032900004F132044FF000054FF0000150E700BF89
:1032A00090F0000F04BF0021704730B54FF48064E8
:1032B00004F1320410F0004548BF40424FF00001D5
:1032C0003EE700BF42004FEAE2014FEA31014FEA18
:1032D00002701FBF12F07F4393F07F4F81F0605167
:1032E000704732F07F4208BF704793F07F4F04BFB2
:1032F00041F40021704730B54FF4607401F000458F
:1033000021F000411CE700BF50EA010208BF7047EE
:1033100030B54FF000050AE050EA010208BF7047DF
:1033200030B511F0004502D5404261EB41014FF448
:10333000806404F132045FEA915C3FF4D8AE4FF050
:1033400003025FEADC0C18BF03325FEADC0C18BF33
:10335000033202EBDC02C2F1200300FA03FC20FA84
:1033600002F001FA03FE40EA0E0021FA02F11444D1
:10337000BDE600BF70B54FF0FF0C4CF4E06C1CEAEA
:1033800011541DBF1CEA135594EA0C0F95EA0C0F5B
:1033900000F0DEF82C4481EA030621EA4C5123EACE
:1033A0004C5350EA013518BF52EA033541F48011FD
:1033B00043F4801338D0A0FB02CE4FF00005E1FBB0
:1033C00002E506F00042E0FB03E54FF00006E1FBFA
:1033D00003569CF0000F18BF4EF0010EA4F1FF043D
:1033E000B6F5007F64F5407404D25FEA4E0E6D417D
:1033F00046EB060642EAC62141EA55514FEAC5208E
:1034000040EA5E504FEACE2EB4F1FD0C88BFBCF509
:10341000E06F1ED8BEF1004F08BF5FEA500E50F1BA
:10342000000041EB045170BD06F0004646EA010180
:1034300040EA020081EA0301B4EB5C04C2BFD4EBB2
:103440000C0541EA045170BD41F480114FF0000EAB
:10345000013C00F3AB8014F1360FDEBF002001F019
:10346000004170BDC4F10004203C35DA0C341BDC93
:1034700004F11404C4F1200500FA05F320FA04F065
:1034800001FA05F240EA020001F0004221F0004199
:1034900010EBD37021FA04F642EB06015EEA430E0C
:1034A00008BF20EAD37070BDC4F10C04C4F120053C
:1034B00000FA04F320FA05F001FA04F240EA0200EF
:1034C00001F0004110EBD37041F100015EEA430EC0
:1034D00008BF20EAD37070BDC4F1200500FA05F2E0
:1034E0004EEA020E20FA04F301FA05F243EA02035F
:1034F00021FA04F001F0004121FA04F220EA02006E
:1035000000EBD3705EEA430E08BF20EAD37070BDB3
:1035100094F0000F0FD101F00046400041EB010193
:1035200011F4801F08BF013CF7D041EA060195F075
:10353000000F18BF704703F00046520043EB03032F
:1035400013F4801F08BF013DF7D043EA060370471C
:1035500094EA0C0F0CEA135518BF95EA0C0F0CD027
:1035600050EA410618BF52EA4306D1D181EA03016D
:1035700001F000414FF0000070BD50EA410606BF67
:103580001046194652EA430619D094EA0C0F02D1AC
:1035900050EA013613D195EA0C0F05D152EA0336F1
:1035A0001CBF104619460AD181EA030101F000410F
:1035B00041F0FE4141F470014FF0000070BD41F058
:1035C000FE4141F4780170BD70B54FF0FF0C4CF432
:1035D000E06C1CEA11541DBF1CEA135594EA0C0F51
:1035E00095EA0C0F00F0A7F8A4EB050481EA030E9E
:1035F00052EA03354FEA013100F088804FEA033385
:103600004FF0805545EA131343EA12634FEA022252
:1036100045EA111545EA10654FEA00260EF0004113
:103620009D4208BF964244F1FD0404F5407402D265
:103630005B084FEA3202B61A65EB03055B084FEAF6
:1036400032024FF480104FF4002CB6EB020E75EBF3
:10365000030E22BFB61A754640EA0C005B084FEA1B
:103660003202B6EB020E75EB030E22BFB61A754698
:1036700040EA5C005B084FEA3202B6EB020E75EBE3
:10368000030E22BFB61A754640EA9C005B084FEA5B
:103690003202B6EB020E75EB030E22BFB61A754668
:1036A00040EADC0055EA060E18D04FEA051545EA57
:1036B00016754FEA06164FEAC30343EA52734FEA00
:1036C000C2025FEA1C1CC0D111F4801F0BD141EA79
:1036D00000014FF000004FF0004CB6E711F4801FDE
:1036E00004BF01430020B4F1FD0C88BFBCF5E06FBE
:1036F0003FF6AFAEB5EB030C04BFB6EB020C5FEACE
:10370000500C50F1000041EB045170BD0EF0004E22
:103710004EEA113114EB5C04C2BFD4EB0C0541EA54
:10372000045170BD41F480114FF0000E013C90E651
:1037300045EA060E8DE60CEA135594EA0C0F08BF15
:1037400095EA0C0F3FF43BAF94EA0C0F0AD150EA14
:1037500001347FF434AF95EA0C0F7FF425AF1046A7
:1037600019462CE795EA0C0F06D152EA03353FF4CF
:10377000FDAE1046194622E750EA410618BF52EA4C
:1037800043067FF4C5AE50EA41047FF40DAF52EA20
:1037900043057FF4EBAE12E74FF0FF3C06E000BFBD
:1037A0004FF0010C02E000BF4FF0010C4DF804CDCA
:1037B0004FEA410C7FEA6C5C4FEA430C18BF7FEA8A
:1037C0006C5C1BD001B050EA410C0CBF52EA430CB8
:1037D00091EA030F02BF90EA020F0020704710F138
:1037E000000F91EA030F58BF994208BF90422CBFC7
:1037F000D8176FEAE37040F0010070474FEA410CC0
:103800007FEA6C5C02D150EA013C07D14FEA430CDD
:103810007FEA6C5CD6D152EA033CD3D05DF8040B4E
:10382000704700BF8446104662468C461946634680
:1038300000E000BF01B5FFF7B7FF002848BF10F157
:10384000000F01BD4DF808EDFFF7F4FF0CBF01209C
:1038500000205DF808FB00BF4DF808EDFFF7EAFF18
:1038600034BF012000205DF808FB00BF4DF808EDD3
:10387000FFF7E0FF94BF012000205DF808FB00BFC8
:103880004DF808EDFFF7CEFF94BF012000205DF852
:1038900008FB00BF4DF808EDFFF7C4FF34BF01205F
:1038A00000205DF808FB00BF80F0004002E000BF90
:1038B00081F0004142001FBF5FEA410392EA030F1B
:1038C0007FEA226C7FEA236C6AD04FEA1262D2EB65
:1038D0001363C1BFD218414048404140B8BF5B426A
:1038E000192B88BF704710F0004F40F4000020F003
:1038F0007F4018BF404211F0004F41F4000121F019
:103900007F4118BF494292EA030F3FD0A2F1010262
:1039100041FA03FC10EB0C00C3F1200301FA03F1A0
:1039200000F0004302D5494260EB4000B0F5000FC3
:1039300013D3B0F1807F06D340084FEA310102F182
:103940000102FE2A51D2B1F1004F40EBC25008BF34
:1039500020F0010040EA03007047490040EB0000FE
:1039600010F4000FA2F10102EDD1B0FA80FCACF12D
:10397000080CB2EB0C0200FA0CF0AABF00EBC2502C
:1039800052421843BCBFD0401843704792F0000F1A
:1039900081F4000106BF80F400000132013BB5E76D
:1039A0004FEA41037FEA226C18BF7FEA236C21D0E3
:1039B00092EA030F04D092F0000F08BF0846704748
:1039C00090EA010F1CBF0020704712F07F4F04D116
:1039D000400028BF40F00040704712F100723CBF29
:1039E00000F50000704700F0004343F0FE4040F453
:1039F000000070477FEA226216BF08467FEA236311
:103A00000146420206BF5FEA412390EA010F40F4FB
:103A1000800070474FF0000304E000BF10F0004347
:103A200048BF40425FEA000C08BF704743F096432E
:103A300001464FF000001CE050EA010208BF704749
:103A40004FF000030AE000BF50EA010208BF7047D0
:103A500011F0004302D5404261EB41015FEA010CE5
:103A600002BF84460146002043F0B64308BFA3F1DD
:103A70008053A3F50003BCFA8CF2083AA3EBC253BF
:103A800010DB01FA02FC634400FA02FCC2F12002DE
:103A9000BCF1004F20FA02F243EB020008BF20F015
:103AA0000100704702F1200201FA02FCC2F120027B
:103AB00050EA4C0021FA02F243EB020008BF20EA70
:103AC000DC7070474FF0FF0C1CEAD0521EBF1CEA9E
:103AD000D15392EA0C0F93EA0C0F6FD01A4480EA8C
:103AE000010C400218BF5FEA41211ED04FF0006375
:103AF00043EA501043EA5111A0FB01310CF00040A1
:103B0000B1F5000F3EBF490041EAD3715B0040EAC6
:103B1000010062F17F02FD2A1DD8B3F1004F40EB96
:103B2000C25008BF20F00100704790F0000F0CF069
:103B3000004C08BF49024CEA502040EA51207F3A2D
:103B4000C2BFD2F1FF0340EAC250704740F4000008
:103B50004FF00003013A5DDC12F1190FDCBF00F0F9
:103B600000407047C2F10002410021FA02F1C2F1A7
:103B7000200200FA02FC5FEA310040F1000053EA43
:103B80004C0308BF20EADC70704792F0000F00F091
:103B9000004C02BF400010F4000F013AF9D040EA97
:103BA0000C0093F0000F01F0004C02BF490011F42B
:103BB000000F013BF9D041EA0C018FE70CEAD15329
:103BC00092EA0C0F18BF93EA0C0F0AD030F0004CA9
:103BD00018BF31F0004CD8D180EA010000F000405D
:103BE000704790F0000F17BF90F0004F084691F01B
:103BF000000F91F0004F14D092EA0C0F01D1420255
:103C00000FD193EA0C0F03D14B0218BF084608D11D
:103C100080EA010000F0004040F0FE4040F4000067
:103C2000704740F0FE4040F4400070474FF0FF0CFA
:103C30001CEAD0521EBF1CEAD15392EA0C0F93EA41
:103C40000C0F69D0A2EB030280EA010C49024FEA93
:103C5000402037D04FF0805343EA111143EA10134C
:103C60000CF000408B4238BF5B0042F17D024FF404
:103C7000000C8B4224BF5B1A40EA0C00B3EB510FDF
:103C800024BFA3EB510340EA5C00B3EB910F24BFC8
:103C9000A3EB910340EA9C00B3EBD10F24BFA3EB4D
:103CA000D10340EADC001B0118BF5FEA1C1CE0D115
:103CB000FD2A3FF650AF8B4240EBC25008BF20F0C8
:103CC000010070470CF0004C4CEA50207F32C2BF1C
:103CD000D2F1FF0340EAC250704740F400004FF0B9
:103CE0000003013A37E792F0000F00F0004C02BFEA
:103CF000400010F4000F013AF9D040EA0C0093F0B4
:103D0000000F01F0004C02BF490011F4000F013B0D
:103D1000F9D041EA0C0195E70CEAD15392EA0C0F75
:103D200008D142027FF47DAF93EA0C0F7FF470AFAD
:103D3000084676E793EA0C0F04D14B023FF44CAFF0
:103D400008466EE730F0004C18BF31F0004CCAD185
:103D500030F000427FF45CAF31F000437FF43CAFC1
:103D60005FE700BF42000ED2B2F1FE4F0BD34FF01F
:103D70009E03B3EB126209D44FEA002343F00043E1
:103D800023FA02F070474FF00000704712F1610F04
:103D900001D1420202D14FF0FF3070474FF00000D6
:103DA000704700BF014B1868704700BFCC0000206F
:103DB00030B5141E05469BB0184605DA8B232B60E0
:103DC0004FF0FF301BB030BD4FF40273ADF80C3034
:103DD00014BF04F1FF332346029305934FF6FF739C
:103DE00000910491ADF80E3002461E9B69462846AC
:103DF00000F072F8431CBCBF8B232B60002CE1D079
:103E0000009B00221A70DDE707B5009313460A46AF
:103E1000014603480068FFF7CBFF03B05DF804FBE1
:103E2000CC0000202DE9F0478E689E4282460C4669
:103E30009046994637D88A8912F4906F31D0256818
:103E400009696F1A6569022305EB450595FBF3F5D2
:103E500009F101033B449D4238BF1D46530530D54F
:103E6000294600F07FFB064650B90C23CAF8003003
:103E7000A38943F04003A3814FF0FF30BDE8F087F2
:103E80003A46216900F0FCFAA38923F4906343F0D9
:103E90008003A381266165613E44ED1B2660A56019
:103EA0004E464E4500D94E4632464146206800F007
:103EB000F2FAA3689B1BA36023681E4426600020BF
:103EC000DCE72A4600F0A8FB06460028E2D121697B
:103ED000504600F0F9FAC8E72DE9F04F9DB0804652
:103EE00003938B891D060C4616460FD50B696BB9DB
:103EF000402100F037FB2060206128B90C23C8F86E
:103F000000304FF0FF30C7E0402363610023099386
:103F100020238DF8293030238DF82A304FF0010B03
:103F200037463D4615F8013B0BB1252B3ED1B7EB8B
:103F3000060A0BD05346324621464046FFF772FF31
:103F4000013000F0A480099B534409933B78002B77
:103F500000F09D8000234FF0FF32CDE9052304934C
:103F600007938DF853301A932F46052217F8011B3B
:103F70004F4800F035FA049BD0B9D90644BF20223F
:103F80008DF853201A0744BF2B228DF853202A782E
:103F90002A2A15D0079A2F4600200A25394611F8FB
:103FA000013B303B092B4DD9B8B10FE02F46B8E7A4
:103FB0003F4A801A0BFA00F0184304903D46D3E7BD
:103FC000039A111D12680391002A01DB079204E095
:103FD000524243F00203079204933B782E2B0CD1FC
:103FE0007B782A2B33D1039B1A1D1B680392002B6D
:103FF000B8BF4FF0FF33023705932E4D39780322B7
:10400000284600F0EDF938B14023401B03FA00F0D8
:10401000049B034301370493397827488DF828100F
:1040200006227E1C00F0DCF9002838D0234B13BB9D
:10403000039B073323F0070308330393099B4B4487
:1040400009936DE705FB023201200F46A6E7002326
:104050000137059319460A25384610F8012B303AE6
:10406000092A03D9002BC8D00591C6E705FB012119
:1040700001230746F0E703AB00932246104B04A947
:104080004046AFF30080B0F1FF3F8146D6D1A3890F
:104090005B063FF536AF09981DB0BDE8F08F03AB66
:1040A00000932246064B04A9404600F081F8EAE757
:1040B000EE470008F4470008F84700080000000039
:1040C000253E00082DE9F04791461F468A680B6996
:1040D000DDF820809342B8BF1346C9F8003091F84C
:1040E000432006460C4612B10133C9F8003023685C
:1040F000990642BFD9F800300233C9F8003025686C
:1041000015F0060507D104F1190AE368D9F8002073
:104110009B1AAB4228DC94F843302268003318BF66
:10412000012392062DD404F1430239463046C0479C
:10413000013020D02368E568D9F8002003F0060399
:10414000042B08BFAD1AA36822690CBF25EAE575E8
:1041500000259342C4BF9B1AED184FF000091A3492
:104160004D451AD1002008E0012352463946304619
:10417000C047013003D14FF0FF30BDE8F087013573
:10418000C3E7E1185A1C302081F84300224494F818
:10419000451082F843100233C5E701232246394611
:1041A0003046C0470130E6D009F10109D8E70000E8
:1041B0002DE9F04301F1430C0C46097E85B06E29D0
:1041C0001746064698460C9A00F0B38022D8632919
:1041D00036D00AD8002900F0B980582900F0838031
:1041E00004F1420584F8421032E0642901D06929C3
:1041F000F6D120681368050603F104012AD51B686F
:104200001160002B03DA2D225B4284F843206F48B3
:104210000A2239E0732900F09D8008D86F2920D048
:104220007029DDD1236843F02003236003E0752962
:1042300017D07829D4D1782384F84530644855E0E4
:104240001368191D1B68116004F1420584F842309F
:1042500001238CE01B68116010F0400F18BF1BB2E7
:10426000CFE713682568181D1060280601D51B6864
:1042700002E06806FBD51B8854486F2914BF0A2248
:104280000822002184F843106568A560002DC0F263
:104290009580216821F004012160002B3DD1002D83
:1042A00040F08E806546082A0BD12368DB0708D5CD
:1042B000236962689A42DEBF302305F8013C05F1AC
:1042C000FF35ACEB05032361CDF800803B4603AA24
:1042D00021463046FFF7F6FE01304DD14FF0FF305A
:1042E00005B0BDE8F083394884F8451013682168AB
:1042F0001D1D1B6815600A060BD5CA0744BF41F097
:10430000200121601BB9226822F0200222601022C5
:10431000B7E74D0648BF9BB2EFE76546B3FBF2F146
:1043200002FB1133C35C05F8013D0B460029F5D1B2
:10433000B9E7136825686169181D106028061B68B5
:1043400001D5196002E06A06FBD5198000232361BC
:104350006546B9E71368191D11601D686268002180
:10436000284600F03DF808B1401B60606368236197
:10437000002384F84330A7E723692A4639463046AC
:10438000C0470130AAD023689B0713D4E068039B81
:104390009842B8BF1846A3E701234A46394630463B
:1043A000C04701309AD00135E368039A9B1AAB42AB
:1043B000F2DCEBE7002504F11909F5E7002BACD19D
:1043C000037884F8423004F142056CE7FF470008A7
:1043D000104800080000000000000000000000007D
:1043E00001F0FF01102A2BDB10F0070F08D010F8A6
:1043F000013B013A8B422DD010F0070F42B3F6D1AA
:10440000F0B441EA012141EA014122F007047FF0C2
:1044100000070023F0E80256083C85EA010586EA19
:10442000010685FA47F5A3FA87F586FA47F6A5FA55
:1044300087F68EB9EED1F0BC01F0FF0102F0070261
:1044400032B110F8013B013A83EA010313B1F8D10C
:104450000020704701387047002D06BF35460338ED
:10446000073815F0010F07D1013015F4807F02BF26
:10447000013015F4C03F0130F0BC0138704700BF77
:1044800010B5431E0A44914200D110BD11F8014BF2
:1044900003F8014FF7E7884210B501EB020307D894
:1044A000421E99420AD011F8014B02F8014FF8E779
:1044B0008342F5D98118D21AD34200D110BD13F826
:1044C000014D01F8014DF7E738B50546002945D003
:1044D00051F8043C0C1F002BB8BFE41800F0D2F8D0
:1044E0001F4A1368104633B9636014602846BDE85C
:1044F000384000F0C8B8A3420CD921686218934232
:1045000004BF1A685B68636004BF521822600460CD
:10451000ECE713465A680AB1A242FAD9196858184A
:10452000A0420BD120680144581882421960DDD1A5
:10453000106852685A6001441960D7E702D90C2309
:104540002B60D3E7206821188A4204BF11685268A3
:10455000626004BF091821605C60C7E738BD00BF16
:10456000E802002070B5CD1C25F0030508350C2DA0
:1045700038BF0C25002D064601DBA94203D90C23C8
:104580003360002070BD00F07DF8214A1468214698
:1045900091B9204C23681BB9304600F063F82060C5
:1045A0002946304600F05EF8431C24D10C233360CA
:1045B000304600F068F8E4E70B685B1B18D40B2B5F
:1045C0000FD90B60CD50CC18304600F05CF804F1E8
:1045D0000B00231D20F00700C31AD3D05A42E2502B
:1045E000D0E78C424B6816BF636013600C46EBE764
:1045F0000C464968CCE7C41C24F00304A04205D053
:10460000211A304600F02EF80130CFD02560DBE7CC
:10461000E8020020EC020020F8B5074614460E46DA
:1046200021B91146BDE8F840FFF79CBF22B9FFF75A
:104630004BFF25462846F8BD00F026F8A0420FD2D1
:1046400021463846FFF78EFF05460028F2D0314656
:104650002246FFF715FF31463846FFF735FFE9E7F9
:104660003546E7E738B5064C002305460846236083
:10467000FBF7D8FE431C02D1236803B12B6038BD81
:10468000F00200207047704751F8043C181F002BBF
:10469000BCBF0B58C0187047537461636B206672BF
:1046A000616D653A0A000000205230203D2020252F
:1046B0003038580A00000000205231203D202025CB
:1046C0003038580A00000000205232203D202025BA
:1046D0003038580A00000000205233203D202025A9
:1046E0003038580A0000000020523132203D202589
:1046F0003038580A00000000204C52203D20202570
:104700003038580A00000000205043203D2020256A
:104710003038580A0000000020505352203D202518
:104720003038580A000000004653522F4641523A92
:104730000A0000002043465352203D2020253038F7
:10474000580A00002048465352203D20202530388A
:10475000580A00002044465352203D20202530387E
:10476000580A00002041465352203D202025303871
:10477000580A0000204D4D464152203D202530383A
:10478000580A00002042464152203D202025303862
:10479000580A00004D6973630A000000204C522F34
:1047A0004558435F52455455524E3D2025303858A8
:1047B0000A0000005B486172644661756C745D0AB2
:1047C000000000005B4275734661756C745D0A0001
:1047D0005B55736167654661756C745D0A00000026
:1047E0000000640064000000000064003200232D1B
:1047F000302B2000686C4C006566674546470030EA
:104800003132333435363738394142434445460036
:104810003031323334353637383961626364656636
:014820000097
:10482400785634124001002000000000090A0000FC
:10483400000100000000FFFF0B0C0000000100005D
:104844000000FFFF0114010100FFFFFF01FFFFFF54
:10485400010000001900000050C300000501000021
:1048640029240008020000001900000050C30000C1
:10487400050400007924000803000000190000006A
:1048840050C3000005010000C92400080500000011
:104894001900000050C3000005010000192500089C
:1048A400090000001900000050C3000005010000C9
:1048B40069250008000200050003000000FFFFFF57
:1048C400000500050000000000FFFFFF00010005D7
:1048D4000008000000FFFFFF0003000500060000C1
:1048E40000FFFFFF000064003200FFFFD000002043
:1048F40000000000000000000000000000000000B4
:1049040000000000000000000000000000000000A3
:104914000000000000000000000000000000000093
:104924000000000000000000000000000000000083
:104934000000000000000000000000000000000073
:104944000000000000000000000000000000000063
:0449540032547698CB
:040000050800019559
:00000001FF
