:020000040800F2
:1000000000000120C5020008CB020008CF02000852
:1000100041030008450300088D03000800000000AC
:10002000000000000000000000000000D5030008F0
:10003000D903000800000000DD030008A109000842
:10004000F1030008F1030008F1030008F1030008C0
:10005000F1030008F1030008050C0008290C000852
:100060004D0C0008710C0008950C0008F103000805
:10007000F1030008F1030008F1030008F103000890
:10008000F1030008F1030008010D00080000000062
:10009000000000000000000000000000B90C000893
:1000A000F1030008F1030008F1030008F103000860
:1000B00061080008B1080008010900089D0A00084D
:1000C0009F0A0008F1030008F1030008F10300088B
:1000D000F10300080D0800082908000800000000CE
:1000E000DD0C0008F1030008F10300080000000027
:1000F000000000000000000000000000F103000804
:1001000000000000F103000851090008F103000895
:1001100000000000000000000000000000000000DF
:10012000F1030008F1030008F1030008F1030008DF
:10013000F1030008000000000000000000000000C3
:10014000000000000000000000000000F1030008B3
:10015000F1030008F1030008F10300084508000856
:10016000F1030008F1030008000000000000000097
:10017000000000000000000000000000000000007F
:1001800000000000F1030008000000000000000073
:10019000F103000800B583B000F0BAF9384B394AD2
:1001A0001360394A1360394900E02146384B9942BF
:1001B0000BD20A684B6801F10C0488689842F4D9A4
:1001C0001168196004330432F8E72E4B1A68314B7A
:1001D0009A4200D0FEE72C4B1A682F4B9A42F9D175
:1001E000274B2E4A13602E4A13602E4B05E0002049
:1001F000106004329342FAD80B462B4A934204D241
:10020000194651F8082B5B68F4E7244B1B6813B9B7
:10021000234B1B6803B1FEE700F082FD694601A88D
:1002200000F022F9214C224BE41AA4100025AC4224
:1002300014DC204C204BE41AA4100025AC4213DC43
:100240000099019800F08AFD05461C4C1C4BE41AED
:10025000A410002C0EDC284600F0E2F8144B53F8F2
:10026000253098470135E2E7134B53F8253098477E
:100270000135E3E7013C124B53F824309847E8E797
:10028000BABADECA0000002070000020F4030008A3
:100290000C0400087856341232547698740000200A
:1002A000680100200C0400081C0400081C0400085D
:1002B0001C0400081C0400081C0400081C0400089E
:1002C0001C04000808B5FFF765FF00BEFEE71EF03E
:1002D000040F0CBFEFF30880EFF309807146414A29
:1002E00010472DE9F04182B004468846124B5E6B00
:1002F0009F6B9D6A1B6B13F0020F03D00E4BDB6AE2
:10030000002B0CDB0D4800F0B7F8CDF800803B4621
:1003100032462946204600F007F900BEFEE74BF6BC
:10032000AB6100F07BF90028ECD0034B4FF00042AA
:10033000DA6202B0BDE8F08100ED00E014180008B8
:1003400000BEFEE71EF0040F0CBFEFF30880EFF3D2
:1003500009807146244A10472DE9F04182B00446D5
:100360008846084B5E6B9F6B9D6A074800F084F8D7
:10037000CDF800803B4632462946204600F0D4F8AE
:1003800000BEFEE700ED00E0241800081EF0040F98
:100390000CBFEFF30880EFF309807146134A104752
:1003A0002DE9F04182B004468846084B5E6B9F6B96
:1003B0009D6A074800F060F8CDF800803B46324661
:1003C0002946204600F0B0F800BEFEE700ED00E050
:1003D0003018000800BEFEE700BEFEE700BEFEE7E4
:1003E00070470000E302000859030008A103000859
:0403F00000BEFEE766
:1003F4008018000800000020740000208018000805
:100404000000001000000010740000206C010020A7
:080414000000001000000010C0
:10042000FEE7000008B503460C4A12685AB10B4AB1
:100430001068033323F003030344094A934206D8A8
:10044000064A136008BD054A06491160EFE700F04F
:10045000DFFC0C2303604FF0FF30F3E7780000204F
:1004600000FC00206C01002001230360014B0B60A5
:10047000704700BF040000200FB400B583B004AB88
:1004800053F8042B01938021064800F0F3FC002868
:1004900003DD0146034800F037F803B05DF804EBD4
:1004A00004B07047800000202DE9F04385B0044679
:1004B0000F4643560BB10E461EE004252846214642
:1004C000ABBE0446384605B0BDE8F08314F9011B05
:1004D00004AA1A4402F8101C0133AB42F6D304AA52
:1004E0001344002203F8102C4FF00408E94640465C
:1004F0004946ABBE8046761B002EE3D03546102E13
:1005000028BF10250023E8E708B5FFF7CDFF08BD99
:1005100008B500F093F8024A024B9A6008BD00BF8C
:100520000000000800ED00E0F8B504460D4617464F
:100530001E462748FFF7A0FF21682648FFF79CFFCB
:1005400061682548FFF798FFA1682448FFF794FFEA
:10055000E1682348FFF790FF21692248FFF78CFFED
:1005600061692148FFF788FFA1692048FFF784FFF0
:10057000E1691F48FFF780FF1E48FFF77DFF29460E
:100580001D48FFF779FF1D4CE16A1D48FFF774FF16
:10059000216B1C48FFF770FFE16B1B48FFF76CFFF6
:1005A00015F0800F0AD115F4004F0CD11748FFF752
:1005B00063FF06991648FFF75FFFF8BD39461548F7
:1005C000FFF75AFFEFE731461348FFF755FFEDE716
:1005D000F816000808170008181700082817000860
:1005E000381700084817000858170008681700084F
:1005F00078170008881700089417000800ED00E03D
:10060000A4170008B4170008C4170008F41700085E
:10061000FC170008D4170008E417000883691A883B
:100620008A4201D0002070470268033A012A03D8A9
:100630000233836101207047002070470C4B1A6819
:1006400042F001021A60002199601A6822F0847257
:1006500022F480321A60074A5A601A6822F4802213
:100660001A60D960044B4FF000629A60704700BF77
:10067000003802401030002400ED00E038B5044698
:100680000D460023C37103F1804303F5883399427B
:100690003FD0304B9D4244D02F4B9D4249D0022247
:1006A0002178A07800F0FCF902226178E07800F06F
:1006B000F7F907222178A07800F02AFA072261785A
:1006C000E07800F025FA6379002B3AD0012B3CD07A
:1006D000EB6823F400436279D20392B21343EB60D8
:1006E00023F480532279120302F48052134323F43B
:1006F000C063EB602A6922F48052A179090301F4F6
:1007000080510A432A6143F40053EB600123E371F3
:1007100038BD0421032000F07DF9252000F0A2F966
:10072000B7E71121022000F075F9262000F09AF9B0
:10073000B2E70521022000F06DF9472000F092F9A0
:10074000ADE740F62C23AB60C2E741F25443AB6007
:10075000BEE700BF0044004000140140C36843F0FE
:100760000C03C360CB79012B00D0704705234B727B
:1007700002230B72F9E7C36823F00C03C3607047D0
:10078000137A022B04D0042B13D101E0032313723C
:100790000B6813F0800FF9D0486001E00323137257
:1007A0000B6813F0400FF9D043F040030B600423B3
:1007B00013727047F8B507460D461646002405E04B
:1007C00032462946FFF7DCFF0134A4B2385D002829
:1007D000F6D132462946FFF7D3FFF8BD034B1B681D
:1007E00003B17047014B1860FBE700BF0401002014
:1007F0004B7A052B00D0704706234B72C36843F039
:100800002003C360F7E700797047000008B5044B88
:1008100000221A60034B1B6803B1984708BD00BF54
:10082000001001400001002008B5044B00221A60AE
:10083000034B1B6803B1984708BD00BF004400404C
:100840000401002008B5044B00221A60034B1B680A
:1008500003B1984708BD00BF001401400801002003
:1008600008B54FF0804319691A6922F001021A6134
:100870001A6922F002021A611A6922F004021A614E
:100880001A6922F008021A611A6922F010021A612C
:1008900011F0010F04D01A461B6923F00103136104
:1008A000024B1B6803B1984708BD00BF0C01002034
:1008B00008B5114B19691A6922F001021A611A6907
:1008C00022F002021A611A6922F004021A611A69FE
:1008D00022F008021A611A6922F010021A6111F05E
:1008E000010F04D01A461B6923F001031361034B67
:1008F0005B6803B1984708BD000400400C0100206C
:1009000008B5114B19691A6922F001021A611A69B6
:1009100022F002021A611A6922F004021A611A69AD
:1009200022F008021A611A6922F010021A6111F00D
:10093000010F04D01A461B6923F001031361034B16
:100940009B6803B1984708BD000800400C010020D7
:1009500008B5114B19691A6922F001021A611A6966
:1009600022F002021A611A6922F004021A611A695D
:1009700022F008021A611A6922F010021A6111F0BD
:10098000010F04D01A461B6923F001031361034BC6
:10099000DB6803B1984708BD000C00400C01002043
:1009A00008B5084B1B6843B1074A12782AB198472B
:1009B000064A136823F002031360024B1B68984732
:1009C00008BD00BF1C0100202001002010E000E055
:1009D0000F4B1A6842F400221A601A6822F480222F
:1009E0001A609A6822F0030242F001029A609A6843
:1009F00022F0F0029A609A6822F460429A609A6843
:100A000022F4E0529A601A6842F480321A60704709
:100A100000380240032822D8DFE800F0020A121A48
:100A20000F48036B012202FA01F119430163704779
:100A30000B48436B012202FA01F1194341637047ED
:100A40000748036C012202FA01F11943016470475F
:100A50000348436C012202FA01F1194341647047D3
:100A60000038024010B40346002812DB5B110A4C28
:100A700054F82320414200F01F0001F01F0158BF2D
:100A80004842012101FA00F0104344F8230010BC51
:100A9000704700F11F03E9E700E100E0704770478D
:100AA00010B44900C9B2012811D018B102281BD0D6
:100AB00010BC7047134C23680320884023EA0003CE
:100AC00002F0030202FA01F119432160F0E70E4C33
:100AD00023680320884023EA000302F0030202FA9D
:100AE00001F119432160E3E7084C236803208840A3
:100AF00023EA000302F0030202FA01F11943216024
:100B0000D6E700BF00000240000402400008024097
:100B100010B4072934D88900C9B2012816D018B1F9
:100B2000022820D010BC7047A1F10D03DBB2012BCD
:100B3000F8D9314C206A0F238B4020EA030002F0E1
:100B40000F0202FA01F101432162EBE72B4C206A0C
:100B50000F238B4020EA030002F00F0202FA01F19A
:100B600001432162DEE7264C206A0F238B4020EAF6
:100B7000030002F00F0202FA01F101432162D1E702
:100B8000A1F10803DBB2072BCCD801F13803DBB2AB
:100B90009B00DBB2012821D070B10228C2D1184CD1
:100BA000616A0F20984021EA000102F00F0202FA68
:100BB00003F30B436362B5E7A3F10D01C9B2012949
:100BC000B0D90D4C616A0F20984021EA000102F073
:100BD0000F0202FA03F30B436362A3E7074C606A58
:100BE0000F21994020EA010002F00F0202FA03F3FC
:100BF0000343636296E700BF000002400004024026
:100C00000008024008B5064B1B683BB1044B1B684B
:100C10009847044A536943F00103536108BD00BF7C
:100C200024010020003C014008B5064B5B683BB145
:100C3000044B5B689847044A536943F002035361CD
:100C400008BD00BF24010020003C014008B5064B50
:100C50009B683BB1044B9B689847044A536943F037
:100C60000403536108BD00BF24010020003C014083
:100C700008B5064BDB683BB1044BDB689847044A78
:100C8000536943F00803536108BD00BF24010020ED
:100C9000003C014008B5064B1B693BB1044B1B6986
:100CA0009847044A536943F01003536108BD00BFDD
:100CB00024010020003C014008B5064B5B693BB1B4
:100CC000044B5B699847044A536943F47873536152
:100CD00008BD00BF24010020003C014008B5064BC0
:100CE0009B693BB1044B9B699847044A536943F4A1
:100CF000F843536108BD00BF24010020003C0140BF
:100D000008B5054B1B682BB19847044A136823F0BC
:100D10000203136008BD00BF400100200020014015
:100D20007047000038B50A4C25780A48FFF76BFD7C
:100D3000094B585522789B5C23B1054A137801333F
:100D4000137038BD002222700248FFF714FDF4E74B
:100D500044010020004400405401002000B58BB045
:100D6000FFF736FE00210846FFF754FE022100205F
:100D7000FFF750FE01210020FFF74CFE0023CDF8C5
:100D80001E30CDF8223009228DF81C200A228DF861
:100D90001D2001228DF82120CDF81230CDF816301B
:100DA00002238DF8103003238DF811308DF81520B3
:100DB000134D294607A8FFF761FC124C214604A8F1
:100DC000FFF75CFC07A92846FFF7C8FC04A92046EA
:100DD000FFF7C4FC0C48FFF701FD04A92046FFF70C
:100DE00007FD0A4A01AB07CA03C323F8022B120C02
:100DF0001A7007AA024901A8FFF7DCFCF9E700BF57
:100E00000010014000440040250D00084018000873
:100E1000014B1868704700BF0C00002030B5141E4D
:100E200005469BB0184605DA8B232B604FF0FF3048
:100E30001BB030BD4FF40273ADF80C3014BF04F199
:100E4000FF332346029305934FF6FF7300910491FD
:100E5000ADF80E3002461E9B6946284600F072F837
:100E6000431CBCBF8B232B60002CE1D0009B0022D5
:100E70001A70DDE707B5009313460A46014603489A
:100E80000068FFF7CBFF03B05DF804FB0C00002007
:100E90002DE9F0478E689E4282460C469046994660
:100EA00037D88A8912F4906F31D0256809696F1A92
:100EB0006569022305EB450595FBF3F509F101038F
:100EC0003B449D4238BF1D46530530D5294600F0AE
:100ED00079FB064650B90C23CAF80030A38943F0C9
:100EE0004003A3814FF0FF30BDE8F0873A46216907
:100EF00000F0F6FAA38923F4906343F08003A38102
:100F0000266165613E44ED1B2660A5604E464E4558
:100F100000D94E4632464146206800F0ECFAA368FC
:100F20009B1BA36023681E4426600020DCE72A4642
:100F300000F0A2FB06460028E2D12169504600F0ED
:100F4000F3FAC8E72DE9F04F9DB0804603938B89F3
:100F50001D060C4616460FD50B696BB9402100F0F3
:100F600031FB2060206128B90C23C8F800304FF015
:100F7000FF30C7E0402363610023099320238DF8ED
:100F8000293030238DF82A304FF0010B37463D468B
:100F900015F8013B0BB1252B3ED1B7EB060A0BD060
:100FA0005346324621464046FFF772FF013000F0BB
:100FB000A480099B534409933B78002B00F09D804B
:100FC00000234FF0FF32CDE90523049307938DF8FA
:100FD00053301A932F46052217F8011B4F4800F093
:100FE0002FFA049BD0B9D90644BF20228DF8532094
:100FF0001A0744BF2B228DF853202A782A2A15D0AD
:10100000079A2F4600200A25394611F8013B303B4C
:10101000092B4DD9B8B10FE02F46B8E73F4A801AE7
:101020000BFA00F0184304903D46D3E7039A111DD4
:1010300012680391002A01DB079204E0524243F058
:101040000203079204933B782E2B0CD17B782A2B3A
:1010500033D1039B1A1D1B680392002BB8BF4FF0BE
:10106000FF33023705932E4D39780322284600F0CE
:10107000E7F938B14023401B03FA00F0049B034317
:1010800001370493397827488DF8281006227E1CF2
:1010900000F0D6F9002838D0234B13BB039B07334D
:1010A00023F0070308330393099B4B4409936DE72F
:1010B00005FB023201200F46A6E700230137059306
:1010C00019460A25384610F8012B303A092A03D967
:1010D000002BC8D00591C6E705FB01210123074677
:1010E000F0E703AB00932246104B04A94046AFF350
:1010F0000080B0F1FF3F8146D6D1A3895B063FF562
:1011000036AF09981DB0BDE8F08F03AB00932246BF
:10111000064B04A9404600F081F8EAE74C180008A5
:10112000521800085618000800000000910E000830
:101130002DE9F04791461F468A680B69DDF820804B
:101140009342B8BF1346C9F8003091F843200646D1
:101150000C4612B10133C9F800302368990642BF2A
:10116000D9F800300233C9F80030256815F00605BB
:1011700007D104F1190AE368D9F800209B1AAB42A1
:1011800028DC94F843302268003318BF012392060C
:101190002DD404F1430239463046C047013020D0F7
:1011A0002368E568D9F8002003F00603042B08BF84
:1011B000AD1AA36822690CBF25EAE57500259342A4
:1011C000C4BF9B1AED184FF000091A344D451AD1CF
:1011D000002008E00123524639463046C04701301E
:1011E00003D14FF0FF30BDE8F0870135C3E7E118C8
:1011F0005A1C302081F84300224494F8451082F8AC
:1012000043100233C5E70123224639463046C04722
:101210000130E6D009F10109D8E700002DE9F043DB
:1012200001F1430C0C46097E85B06E29174606462F
:1012300098460C9A00F0B38022D8632936D00AD899
:10124000002900F0B980582900F0838004F142059C
:1012500084F8421032E0642901D06929F6D120686F
:101260001368050603F104012AD51B681160002BE1
:1012700003DA2D225B4284F843206F480A2239E0CA
:10128000732900F09D8008D86F2920D07029DDD106
:10129000236843F02003236003E0752917D07829E1
:1012A000D4D1782384F84530644855E01368191D7B
:1012B0001B68116004F1420584F8423001238CE080
:1012C0001B68116010F0400F18BF1BB2CFE7136806
:1012D0002568181D1060280601D51B6802E0680605
:1012E000FBD51B8854486F2914BF0A22082200210D
:1012F00084F843106568A560002DC0F295802168D0
:1013000021F004012160002B3DD1002D40F08E80A2
:101310006546082A0BD12368DB0708D52369626874
:101320009A42DEBF302305F8013C05F1FF35ACEBF6
:1013300005032361CDF800803B4603AA21463046D1
:10134000FFF7F6FE01304DD14FF0FF3005B0BDE89C
:10135000F083394884F84510136821681D1D1B6807
:1013600015600A060BD5CA0744BF41F02001216071
:101370001BB9226822F0200222601022B7E74D0636
:1013800048BF9BB2EFE76546B3FBF2F102FB1133B6
:10139000C35C05F8013D0B460029F5D1B9E7136898
:1013A00025686169181D106028061B6801D5196041
:1013B00002E06A06FBD51980002323616546B9E780
:1013C0001368191D11601D6862680021284600F02D
:1013D00037F808B1401B606063682361002384F81C
:1013E0004330A7E723692A4639463046C0470130D3
:1013F000AAD023689B0713D4E068039B9842B8BF28
:101400001846A3E701234A4639463046C047013013
:101410009AD00135E368039A9B1AAB42F2DCEBE702
:10142000002504F11909F5E7002BACD1037884F805
:10143000423004F142056CE75D1800086E180008A0
:1014400001F0FF01102A2BDB10F0070F08D010F875
:10145000013B013A8B422DD010F0070F42B3F6D179
:10146000F0B441EA012141EA014122F007047FF092
:1014700000070023F0E80256083C85EA010586EAE9
:10148000010685FA47F5A3FA87F586FA47F6A5FA25
:1014900087F68EB9EED1F0BC01F0FF0102F0070231
:1014A00032B110F8013B013A83EA010313B1F8D1DC
:1014B0000020704701387047002D06BF35460338BD
:1014C000073815F0010F07D1013015F4807F02BFF6
:1014D000013015F4C03F0130F0BC0138704700BF47
:1014E00010B5431E0A44914200D110BD11F8014BC2
:1014F00003F8014FF7E7884210B501EB020307D864
:10150000421E99420AD011F8014B02F8014FF8E748
:101510008342F5D98118D21AD34200D110BD13F8F5
:10152000014D01F8014DF7E738B50546002945D0D2
:1015300051F8043C0C1F002BB8BFE41800F0D2F89F
:101540001F4A1368104633B9636014602846BDE82B
:10155000384000F0C8B8A3420CD921686218934201
:1015600004BF1A685B68636004BF5218226004609D
:10157000ECE713465A680AB1A242FAD9196858181A
:10158000A0420BD120680144581882421960DDD175
:10159000106852685A6001441960D7E702D90C23D9
:1015A0002B60D3E7206821188A4204BF1168526873
:1015B000626004BF091821605C60C7E738BD00BFE6
:1015C0004801002070B5CD1C25F0030508350C2D11
:1015D00038BF0C25002D064601DBA94203D90C2398
:1015E0003360002070BD00F07DF8214A1468214668
:1015F00091B9204C23681BB9304600F063F8206095
:101600002946304600F05EF8431C24D10C23336099
:10161000304600F068F8E4E70B685B1B18D40B2B2E
:101620000FD90B60CD50CC18304600F05CF804F1B7
:101630000B00231D20F00700C31AD3D05A42E250FA
:10164000D0E78C424B6816BF636013600C46EBE733
:101650000C464968CCE7C41C24F00304A04205D022
:10166000211A304600F02EF80130CFD02560DBE79C
:10167000480100204C010020F8B5074614460E46EC
:1016800021B91146BDE8F840FFF79CBF22B9FFF72A
:101690004BFF25462846F8BD00F026F8A0420FD2A1
:1016A00021463846FFF78EFF05460028F2D0314626
:1016B0002246FFF715FF31463846FFF735FFE9E7C9
:1016C0003546E7E738B5064C002305460846236053
:1016D000FEF7A8FE431C02D1236803B12B6038BD7E
:1016E000500100207047704751F8043C181F002B30
:1016F000BCBF0B58C0187047537461636B2066728F
:10170000616D653A0A000000205230203D202025FE
:101710003038580A00000000205231203D2020259A
:101720003038580A00000000205232203D20202589
:101730003038580A00000000205233203D20202578
:101740003038580A0000000020523132203D202558
:101750003038580A00000000204C52203D2020253F
:101760003038580A00000000205043203D2020253A
:101770003038580A0000000020505352203D2025E8
:101780003038580A000000004653522F4641523A62
:101790000A0000002043465352203D2020253038C7
:1017A000580A00002048465352203D20202530385A
:1017B000580A00002044465352203D20202530384E
:1017C000580A00002041465352203D202025303841
:1017D000580A0000204D4D464152203D202530380A
:1017E000580A00002042464152203D202025303832
:1017F000580A00004D6973630A000000204C522F04
:101800004558435F52455455524E3D202530385877
:101810000A0000005B486172644661756C745D0A81
:10182000000000005B4275734661756C745D0A00D0
:101830005B55736167654661756C745D0A000000F5
:10184000546573742055736172740000232D302B1E
:101850002000686C4C0065666745464700303132B1
:101860003334353637383941424344454600303108
:0F18700032333435363738396162636465660068
:10188000785634127C000020000000001000002078
:101890000000000000000000000000000000000048
:1018A0000000000000000000000000000000000038
:1018B0000000000000000000000000000000000028
:1018C0000000000000000000000000000000000018
:1018D0000000000000000000000000000000000008
:1018E00000000000000000000000000000000000F8
:0418F0003254769860
:040000050800019559
:00000001FF
